:020000040800F2
:10000000C0070020F1010008632D0008852A0008C0
:10001000612D0008050B000869450008000000007C
:10002000000000000000000000000000672D000834
:10003000490B000800000000652D0008E1340008AD
:100040000B0200080B0200080B0200080B0200085C
:100050000B0200080B0200080B0200080B0200084C
:100060000B0200080B0200080B0200080B0200083C
:100070000B0200080B0200080B0200080B0200082C
:100080000B020008000000000B0200080B02000831
:100090000B0200080B0200080B0200080B0200080C
:1000A0000B0200080B0200080B0200080B020008FC
:1000B0005D3500080B020008693500080B020008D6
:1000C0000B0200080B0200080B0200080B020008DC
:1000D0000B02000835440008414400080B020008E8
:1000E0000B0200080B0200080B0200080B020008BC
:1000F0000B0200080B0200080B02000800000000C1
:10010000000000000B020008000000000B020008C5
:100110000B020008000000000B0200080B020008A0
:100120000B0200080B0200080B0200080B0200087B
:100130000B02000800000000000000000B02000895
:100140000B0200080B020008000000000000000085
:10015000000000000000000000000000000000009F
:100160000000000000000000000000000B0200087A
:100170000B0200080000000000000000000000006A
:10018000000000000B02000800000000000000005A
:10019000000000000000000000000000000000005F
:1001A00000000000000000000B0200080B02000825
:1001B0000B0200080B0200080B0200080000000000
:1001C000000000000B02000800000000000000001A
:1001D0000B0200080B020008DFF810D000F0CEFA86
:1001E0000048004791490008AFF30080C007002095
:1001F0000648804706480047FEE7FEE7FEE7FEE7C1
:10020000FEE7FEE7FEE7FEE7FEE7FEE74D35000806
:10021000D90100082DE9F05F0546002092469B4673
:1002200088460646814640241BE02846414647460C
:10023000224600F0A2F953465A46C01A914110D303
:1002400011461846224600F089F92D1A67EB01087D
:100250004F4622460120002100F080F917EB0009EB
:100260004E41201EA4F10104DFDC484631462A46F7
:100270004346BDE8F09FD2B201E000F8012B491ED1
:10028000FBD270470022F6E710B513460A46044633
:100290001946FFF7F0FF204610BD00000FB400B56F
:1002A0008DB010A909900B9000914FF0FF300A908B
:1002B00000200C9005480690054807906A4609A85A
:1002C0000F9900F07FF90DB05DF814FBE10500080F
:1002D000FF0500082DE9FF5F1D464FF0FF3BD5E904
:1002E000014691465F464FF00008A9697F1C0198BE
:1002F0008847296A824688470028F6D1BAF1FF3F2D
:100300000CD024F4C064002E19DD600614D5BAF1B7
:100310002B0F09D0BAF12D0F0ED103E0584604B0CF
:10032000BDE8F09F44F48064A9697F1C0198884768
:10033000761E8246002E02DDBAF1300F03D0B9F1ED
:10034000000F26D032E0A969761E44F400747F1CA9
:10035000019888478246002E05DDBAF1780F06D055
:10036000BAF1580F03D0B9F1000F10D01EE0B9F167
:10037000000F02D0B9F1100F18D1A969761E24F42C
:1003800000747F1C019888478246102002E00820F4
:1003900000E00A20814609E008FB0908A969761EE9
:1003A00044F400747F1C019888478246002E05DDC6
:1003B0004946504600F0F1F80028EDDAE969019865
:1003C0008847A00502D46FF00100A8E7E00725D117
:1003D000600613D5600502D5C8F1000000E0404674
:1003E00029680A1D2A600968220501D5087015E0F0
:1003F000220701D5088011E008600FE02868011D80
:1004000029600068210502D580F8008006E02107F8
:1004100002D5A0F8008001E0C0F8008038467EE7F1
:100420002DE9FE4F81EA030404F0004421F000416D
:1004300000944FF0000B23F0004350EA01045ED01B
:1004400052EA03045BD0C3F30A54C1F30A552C44A7
:10045000A4F2F3340194A0FB0254C1F3130141F45C
:100460008011C3F3130343F4801301FB024400FB28
:10047000034E840A970A44EA815447EA8357A4FB4F
:10048000076802958D0A05FB07854FEA932C04FB4C
:100490000C542705029D4FEA065847EA1637B5EB7C
:1004A00008056EEB070C870E920E47EA811742EAA9
:1004B0008312A7FB0201B6EB0B0164EB00042B0DCA
:1004C00043EA0C335E1844EB1C50DA465146E7FB16
:1004D0000201C5F313044FEA0B3343EA14534FEA06
:1004E0000432019C43EA0603A4F10C040294009C2C
:1004F000CDE900B400F0A3F803B0BDE8F08F002010
:100500000146F9E7C1F30A5210B5C1F3130140F2F5
:10051000FF3341F480119A4201DA002010BD40F20D
:1005200033439A42A2F2334203DC524200F025F8F0
:1005300010BD904010BD00F0004230F000400AD0E5
:10054000C10D01F56071C0F3160042EA0151C20805
:10055000400711437047002001467047202A04DB02
:10056000203A00FA02F1002070479140C2F12003C6
:1005700020FA03F3194390407047202A04DB203A05
:1005800021FA02F00021704721FA02F3D040C2F1B3
:10059000200291400843194670473A2800D230386B
:1005A00020F02002412A01D3A2F13700884201D372
:1005B0004FF0FF307047000002681144137801606B
:1005C00018467047D1600449516104491162002105
:1005D0001161114600F0EAB8B9050008A10700084A
:1005E000426842B1016811F8013B23B1521EC0E9D3
:1005F0000012184670470121C160881E704742688A
:100600005AB1C368016843B983688B4205D0491E5B
:10061000521CC0E90012002070474FF0FF307047B5
:1006200010B5141E73F1000408DA401C41F10001FA
:1006300092185B411A4301D120F0010010BD2DE951
:10064000F04D92469B4611B1B1FA81F202E0B0FA48
:1006500080F220329046FFF781FF04460F4640EAC1
:100660000A0041EA0B0153465A46084313D011468B
:1006700053EA010019D0C8F140025046FFF77DFF50
:1006800005460E46504659464246FFF767FF084367
:1006900005D0012004E020463946BDE8F08D002059
:1006A000054346EAE0762C4337430A986305E40A9B
:1006B000A0EB08000022FD0A44EA47540A3002D5A4
:1006C00000200146E9E7010510196941DDE9084507
:1006D00000196941BDE8F04DA2E72DE9F04D002376
:1006E0001A461B1A8A4103DB00200146BDE8F08D43
:1006F000C1F30A52C1F3130141F480154FF0000B0E
:10070000D10702D100186D41521E0027044640F265
:10071000FF11384601EB620A3E4680460246002041
:100720004FF48011FFF729FFC2197141BB1846EB46
:100730000100B4EB030C75EB000C04D3E41A65EB79
:10074000000517460E46241908F101006D41804648
:100750003428E3DDF91946EB0600091BA84103D252
:100760004FF0FF32134601E0002213461BEB070057
:1007700046EB0A51BDE8F04DFFF752BF064C074D5E
:1007800006E0E06840F0010394E807009847103461
:10079000AC42F6D3FFF724FDF04E0008104F0008DE
:1007A000C0B24FF4F05100F099B900002DE9F34FB9
:1007B0008BB04FF0000801F10C000C464FF0010B1C
:1007C00046460DF1080A019062690121019890479F
:1007D000051E2DD0252D2CD0216A8847C0B1626915
:1007E000012101989047216A88470028F7D1411ECE
:1007F00062690198904700E0761CA1690B988847D0
:10080000216A88470028F7D1E1690B988847DBE720
:10081000A1690B9888470746A84201D1761CD3E707
:10082000E1690B9888477F1C02D1B8F1000F6FD0A7
:1008300047E1002762693D463946019890472A28DA
:1008400004D162690121019890470125DFF888925F
:100850006269012101989047A0F130010A290AD26A
:100860004F45E5DC07EB870100EB4107303FDFD464
:1008700045F01005ECE7E90601D46FF000476C285D
:100880000AD04C2814D0682815D06A280DD07428B6
:100890001CD07A281AD01DE0626901210198904786
:1008A0006C2802D045F0040514E045F002050DE087
:1008B00045F020050AE06269012101989047682807
:1008C00002D045F0080505E045F4006562690121A4
:1008D00001989047C4E9015765283DD019DC582894
:1008E0007AD00CDC452837D004DC252826D04128D6
:1008F00031D131E046282FD047282CD12CE05B287D
:1009000077D0612828D063287CD0642823D15AE08E
:10091000D1E06F2848D008DC66281DD067281BD09E
:10092000692821D06E2816D127E0702845D0732879
:1009300068D0752847D078280DD14DE0A1690B9873
:100940008847054625283FF469AFE1690B98884739
:100950006D1C3FF46AAFB4E023466A466FF00100B5
:100960000B99AFF300809FE045F040006060A8075E
:1009700023464FF0000236D43EE0E8077FF447AF4D
:100980002068011D21600068290501D506701BE75C
:10099000290701D5068017E7A90703D5F117C0E994
:1009A000006111E706600FE745F040006060A807AE
:1009B00023464FF0080216D41EE040F60E0125EA49
:1009C0000100606016E045F040006060A807234623
:1009D0004FF00A0207D40FE045F040006060A8071E
:1009E00008D5234610226FF001000B99AFF3008069
:1009F0005AE007E0234610226FF001000B99FFF741
:100A000069FC51E04FF000094F464B46632802D085
:100A10005B2807D041E02079C00601D40120A06006
:100A200001273AE062690121019890475E2805D1CB
:100A30004FF001096269494601989047216939B927
:100A400000210A46534643F82120491C0829FADBB5
:100A5000B0B3216969B9C11700EBD16253110AEB38
:100A6000830122F01F02821A01200B689040034389
:100A70000B6062690121019890475D28E8D1B9F1C6
:100A8000000F09D00020514651F82020D24341F8F0
:100A90002020401C0828F7DB02AB224600976FF0AD
:100AA00001000B99AFF3008000280CDA401C08D13C
:100AB000BBF1000F05D04FF0FF300DB0BDE8F08F57
:100AC000FFE74046F9E7E90701D108F101080644CC
:100AD0004FF0000B78E60000CCCCCC0C7F2801D97D
:100AE000002208E0064A02EB5002C007127800D14B
:100AF000120902F00F0201209040084070470000E8
:100B0000B04E0008FEE770EEC00AB6EE001A00B55F
:100B100000EE810A014620EE200ABDEEC00A10EE6A
:100B2000100A04F0B3F800EE100AD1ED160A91EDA8
:100B3000141AB8EE400A60EE810A80EE201ABCEE6C
:100B4000C10A10EE100A00BD704772B6FEE710B57C
:100B500090F8253000210122022B03D00421C1632B
:100B6000012122E003681C6824F00E041C60836CE1
:100B70001C6824F480741C6003681C6824F0010461
:100B80001C6090F84430046C03F01F0302FA03F376
:100B90006360D0E913345C60436D33B11C6824F4A6
:100BA00080741C60D0E916345C6080F82520002237
:100BB00080F82420084610BD70B590F82520002448
:100BC00001212346022A07D00422C26380F825109F
:100BD00080F82430012429E00268156825F00E050C
:100BE00015600268156825F001051560826C1568AE
:100BF00025F48075156090F84420056C02F01F0202
:100C000001FA02F26A60D0E913255560426D32B1F3
:100C1000156825F480751560D0E91625556080F8B3
:100C2000251080F82430816B01B18847204670BDC3
:100C300070B5044600F038F90546601C02D004483F
:100C40004068044400F030F9401BA042FAD370BD64
:100C5000000000202DE9F04FDFF82092002301264C
:100C60000324A9F1040B85B00F2709F1040AABF1A5
:100C7000040EFAE006FA03F52A407CD091F804C08D
:100C80000CF0030CBCF1010F02D0BCF1020F26D115
:100C9000D0F808C0CDF800C04FEA430C04FA0CF8B5
:100CA000CDF810C0DDF800C02CEA080CCDF800C06B
:100CB000D1F80C80DDF810C008FA0CF8DDF800C09F
:100CC00048EA0C08C0F80880D0F804C02CEA050CEB
:100CD0000D79C5F300159D4045EA0C0545600D7979
:100CE000ED43AD070ED0C5684FEA430804FA08FC8F
:100CF00025EA0C05D1F808C00CFA08FC4CEA050CF2
:100D0000C0F80CC00D7905F00305022D16D1DD08E1
:100D100000EB850CCDF808C0DCF820805D074FEAB9
:100D2000D56C07FA0CF528EA05080D6905FA0CF5EB
:100D3000DDF808C045EA0805CCF8205005684FEA00
:100D4000430CCDF808C004FA0CFC25EA0C0591F818
:100D500004C00CF00308DDF808C008FA0CF848EAF3
:100D60000508C0F800804D6815F4403F7CD0444D24
:100D7000D5F860C000E077E04CF0010CC5F860C029
:100D80002D6E23F0030C05F0010500953D4D6544E3
:100D90000295AD684FEA837C4FEA1C7807FA08FC9D
:100DA00025EA0C05B0F1904F06D0DFF8DCC06045B5
:100DB00005D14FF0010C20E04FF0000C1DE0DFF8F2
:100DC000CCC0604502D14FF0020C16E0DFF8C0C085
:100DD000604502D14FF0030C0FE0DFF8B8C060456A
:100DE00002D14FF0040C08E0DFF8ACC0604502D13E
:100DF0004FF0050C01E04FF0060C0CFA08FC4CEA31
:100E0000050C029DC5F808C0D9F80050CC46D1F8B1
:100E1000048095435FEAC82800D51543CCF80050FC
:100E2000DAF80050D446D1F8048095435FEA882868
:100E300000D51543CCF80050DBF80050DC46D1F863
:100E4000048095435FEA883800D51543CCF80050FC
:100E5000DEF80050F446D1F8048095435FEAC838C4
:100E600000D51543CCF800505B1C0A6832FA03F534
:100E70007FF400AF05B0BDE8F08F0000080401402A
:100E80000010024000000140000400480008004833
:100E9000000C004800100048001400480AB18161AD
:100EA0007047816270470000014880687047000009
:100EB0000000002002488168426811448160704748
:100EC0000000002010B50024032000F073F80F206C
:100ED00000F008F808B1012401E000F025F82046F0
:100EE00010BD000070B50E4E05460024706898B124
:100EF0004FF47A71B1FBF0F00A490968B1FBF0F0E8
:100F000000F062FD40B9102D06D200222946501E85
:100F100000F030F8356000E00124204670BD00008C
:100F2000000000200C0000200A4882B0016E41F051
:100F300001010166016E01F001010091816D41F036
:100F400080518165806D00F08050009002B000F00B
:100F5000A1B8000000100240002809DB00F01F02C9
:100F6000012191404009800000F1E020C0F800110B
:100F700070470000F0B40E4B1B680C46C3F302230D
:100F8000C3F10705042D00D90425191D072901D235
:100F9000002300E0DB1E012606FA05F1491E214070
:100FA00099409E40761E16403143F0BC03F0F0BAE3
:100FB0000CED00E0064900F0070208684FF6FF0359
:100FC000184040EA0220034A1043086070470000BE
:100FD0000CED00E00000FA052B492C4B0A68322189
:100FE0004A432B4940B1B0F5007F086829D020F46E
:100FF000C06040F480602CE00868C0F34120022803
:1010000004D051F8800F20F4807022E0D1F88000E5
:1010100020F48070C1F88000086820F4C06040F4BB
:1010200000700860B2FBF3F0401C00E0401E4A690B
:10103000520501D50028F9D1486940050AD5032099
:101040007047C0F34120022806D051F8800F40F4C9
:101050008070086000207047D1F8800040F48070F4
:10106000C1F88000086820F4C06040F40070086097
:10107000B2FBF3F0401C00E0401E4A695205DBD58C
:101080000028F9D1D8E700000C00002040420F00F2
:10109000007000400248816841F4804181607047DF
:1010A000007000402DE9F8430446006800269D4D7D
:1010B00000035ED5A86D0027C00008D4A86D40F0DD
:1010C0008050A865A86D012700F080500090DFF8DF
:1010D0005892D9F8001041F48071C9F80010FFF758
:1010E000E3FE804606E000BFFFF7DEFEA0EB08004F
:1010F00002282BD8D9F80000C005F5D5D5F8900006
:1011000010F4407014D0216C814211D0D5F89000B9
:10111000D5F8901020F4407041F48031C5F890105B
:10112000D5F8901021F48031C5F89010C5F89000E2
:10113000C00711D0FFF7B8FE804641F2883907E0BA
:10114000FFF7B2FEA0EB0801494501D903260BE0E9
:10115000D5F890008007F3D5D5F89000216C20F4E5
:1011600040700843C5F890001FB1A86D20F0805072
:10117000A8652078C00707D0D5F88800616820F0FE
:1011800003000843C5F888002078800707D5D5F804
:101190008800A16820F00C000843C5F8880020787A
:1011A000400707D5D5F88800E16820F030000843F3
:1011B000C5F888002078000707D5D5F88800216990
:1011C00020F0C0000843C5F888002078800607D5C5
:1011D000D5F88800616920F440600843C5F88800AC
:1011E0002078400607D5D5F88800A16920F4405042
:1011F0000843C5F888002078000607D5D5F8880090
:10120000E16920F440400843C5F888002088C00503
:1012100007D5D5F88800216A20F440300843C5F886
:1012200088002088800507D5D5F88800616A20F4F9
:1012300040200843C5F88800208840050FD5D5F820
:101240008800A16A20F440100843C5F88800A06A0D
:10125000B0F5801F03D1E86840F48010E860208872
:1012600000050FD5D5F88800E16A20F44000084356
:10127000C5F88800E06AB0F5800F03D1E86840F453
:101280008010E8602088C0040FD5D5F88800216B55
:1012900020F040700843C5F88800206BB0F1807FD3
:1012A00003D1E86840F48010E86020884FF00061C6
:1012B00080040ED5D5F88800626B20F040601043A2
:1012C000C5F88800606B884203D1E86840F480105C
:1012D000E860208840040ED5D5F88800A26B20F085
:1012E00040601043C5F88800A06B884203D1E868CD
:1012F00040F48010E860208800040FD5D5F88800FD
:10130000E16B20F040500843C5F88800E06BB0F175
:10131000805F03D1E86840F48030E8603046BDE883
:10132000F883000000100240007000402DE9F047F3
:101330000E4605004FF0000725D0DFF8AC81D8F845
:10134000000000F00F00B0420CD2D8F8001021F0DD
:101350000F013143C8F80010D8F8000000F00F006A
:10136000B04210D12968614CC80741F2883A5AD07E
:101370006868DFF87C91032808D0022820682DD007
:10138000400500282CDB0120BDE8F08720688001A3
:10139000F9D5E06800F00302E068C0F30310401CD8
:1013A000032A19D0534A00BFB2FBF0F0E268C2F33F
:1013B00006225043E268C2F34162521C5200B0FB65
:1013C000F2F0484517D9A06810F0F00F0CD088074C
:1013D00011D5A86840B10EE0474AE5E78003D0E7A1
:1013E00000F0B6F8484506D9A06820F0F00040F0BB
:1013F0008000A0608027A068696820F0030008438F
:10140000A060FFF751FD814606E000BFFFF74CFDED
:10141000A0EB090151453AD8A068696800F00C00BA
:10142000B0EB810FF2D12868810714D5400703D5AE
:10143000A06840F4E060A0602878000705D5A068A7
:1014400020F4605040F4E060A060A068A96820F03B
:10145000F000084304E0802F03D1A06820F0F000E2
:10146000A060D8F80010404601F00F01B14216D933
:10147000016821F00F0131430160FFF715FD0746B8
:1014800007E000BFFFF710FDC11B514501D9032044
:101490007AE7D8F8000000F00F00B042F2D12878C7
:1014A000400705D5A068E96820F4E0600843A06023
:1014B0002878000706D5A068296920F4605040EA22
:1014C000C100A06000F044F8A1680C4AC1F3031108
:1014D000515C01F01F01C8400949086009480068D3
:1014E000BDE8F047FFF7FEBC0020024000100240BC
:1014F00000B4C4040024F40000127A00984E0008DE
:101500000C0000200000002005480649006889689A
:10151000054AC1F30221515C01F01F01C840704728
:101520000C00002000100240A84E000805480649A3
:1015300000688968054AC1F3C221515C01F01F01AE
:10154000C84070470C00002000100240A84E000860
:10155000184910B58868C0F381021748012A0BD0DA
:101560008A684310C2F38102022A06D08A68C2F355
:101570008102032A03D0002010BD184610BDCA689E
:1015800002F00304CA68C2F30312521C032C02D0F7
:10159000B0FBF2F001E0B3FBF2F0CA68C968C2F335
:1015A00006225043C1F34161491C4900B0FBF1F0F0
:1015B00010BD0000001002400024F4002DE9F843A3
:1015C00004007AD02078FA4DC00747D0A868E968AF
:1015D00000F00C0001F003010C2802D0082817D0FD
:1015E00001E0032914D06068B0F5803F17D0B0F552
:1015F000A02F286817D020F480302860286820F4B5
:10160000802028606068E0B1FFF74EFC064614E0D9
:101610002868800322D560680028D2D01EE02868A0
:1016200040F48030EDE740F480202860F7E700BF09
:10163000FFF73AFC801B642870D828688003F7D530
:101640000CE0FFF731FC064605E000BFFFF72CFC7D
:10165000801B6428F0D828688003F7D4207880079E
:101660004CD5A868E96800F00C0001F003010C28D3
:1016700002D004280DD001E002290AD0E068002839
:1016800028682BD040F480702860FFF70DFC0646D8
:1016900019E02868400502D5E068002891D0686804
:1016A000217C20F0FE4040EA01606860C14800688B
:1016B000FFF718FC002800D120E076E1FFF7F4FBEB
:1016C000801B0228B8D828684005F7D56868217CB7
:1016D00020F0FE4040EA016068600FE020F4807076
:1016E0002860FFF7E1FB064605E000BFFFF7DCFBE3
:1016F000801B0228A0D828684005F7D4207800076E
:1017000029D560690028D5F8940013D040F0010075
:10171000C5F89400FFF7C8FB064606E090E000BF5E
:10172000FFF7C2FB801B022886D8D5F894008007FB
:10173000F6D510E020F00100C5F89400FFF7B4FBE7
:10174000064604E0FFF7B0FB801B022878D8D5F8E6
:1017500094008007F6D42078400761D5A86D002654
:10176000C00008D4A86D40F08050A865A86D01267F
:1017700000F08050009090480168C90511D40168BC
:10178000804641F480710160FFF78EFB074604E05C
:10179000FFF78AFBC01B022852D8D8F80000C0050A
:1017A000F6D5A068012815D00528D5F8900016D0E8
:1017B00020F00100C5F89000D5F8900020F004005A
:1017C000C5F89000A06841F28838B8B1FFF76CFB0B
:1017D00007460EE0D5F8900040F00100F0E740F039
:1017E0000400C5F89000F5E7FFF75EFBC11B41451B
:1017F00026D8D5F890008007F6D50CE0FFF754FB0B
:10180000074604E0FFF750FBC11B414518D8D5F847
:1018100090008007F6D41EB1A86D20F08050A86516
:101820002078800629D5A0690028D5F8980013D023
:1018300040F00100C5F89800FFF736FB064606E0C9
:1018400077E000BFFFF730FB801B022877D8D5F880
:1018500098008007F6D510E020F00100C5F8980048
:10186000FFF722FB064604E0FFF71EFB801B022861
:1018700065D8D5F898008007F6D4E069F0B3A96878
:10188000C1F38101032961D00228286820F080700B
:1018900028600BD0E86820F00300E860E86847495A
:1018A0000840E860FFF700FB04464BE0FFF7FCFA56
:1018B000064604E0FFF7F8FA801B02283FD82868A4
:1018C0008001F7D4F4E908016FF00F0202EB011177
:1018D0000843218A5204490802EB4151A26841EAB7
:1018E00002210843217D4FF07E42490802EB41610D
:1018F0000843217B40EAC160E96800E062E0304AC9
:1019000011400843E860286840F080702860E8686B
:1019100040F08070E860FFF7C7FA044605E000BFBA
:10192000FFF7C2FA001B022809D828688001F7D502
:1019300048E004E0FFF7B8FA001B022802D90320B0
:10194000BDE8F88328688001F4D43BE00128F7D093
:10195000E868226A00F00301914226D1616A00F032
:10196000F0020901103991421FD1A26A00F4FE4130
:10197000B1EB022F19D194F82C2000F07841B1EB93
:10198000C26F12D1218E00F4C00249084905A1F5A9
:101990000011914209D194F8341000F0C060490858
:1019A0004906A1F1007181420CD00120C8E7000076
:1019B000001002400000002000700040FFFFEEFE1B
:1019C0000C809F010020BBE710B5401EB0F1807F66
:1019D00001D3012010BD4FF0E02460610F2160179A
:1019E00002F0D6FD0020A06107202061002010BD7C
:1019F000704770477047704770477047F0B590F870
:101A00003C20012A3AD0012580F83C50022280F87F
:101A10003D2003685A689C68194E1A4FB34201D0A2
:101A2000BB4204D122F4700C4A6842EA0C02DFF88F
:101A300058C002EA0C02D1F800C04CEA020CC3F80C
:101A400004C00268B2420DD0B2F1804F0AD00F4BF1
:101A50009A4207D00E4B9A4204D0BA4202D00D4BA4
:101A60009A4204D1896824F080031943916080F878
:101A70003D50002180F83C100846F0BD0220F0BD2A
:101A8000002C0140003401408FFFFFFD00040040A6
:101A90000008004000400140704710B5040003D02A
:101AA00094F83D0010B107E0012010BD002084F83B
:101AB0003C00204600F022F8022084F83D00211D61
:101AC000206801F057FD012084F8480084F83E00AA
:101AD00084F83F0084F8400084F8410084F8420014
:101AE00084F8430084F8440084F8450084F84600F4
:101AF00084F8470084F83D00002010BD08B5006858
:101B00000B49884212D10B48816D41F00401816577
:101B1000806D002200F00400009011461E20FFF7A7
:101B200029FABDE808401E20FFF716BA08BD0000DC
:101B3000000800400010024090F83D10012901D03B
:101B400001207047022180F83D100168CA6842F008
:101B50000102CA600068104988420ED0B0F1804F7F
:101B60000BD00E49884208D00D49884205D00D4956
:101B7000884202D00C49884207D181680B4A114043
:101B8000062906D0B1F5803F03D0016841F001017C
:101B90000160002070470000002C0140000400405C
:101BA00000080040003401400040014007000100EF
:101BB00070B5044690F83C000025012814D0012699
:101BC00084F83C60022084F83D0022689068364B1F
:101BD000184020F47F409060086870282ED010DCF8
:101BE00010F00F0F03D021E04FF0020070BD4FEA5C
:101BF0002012072A1AD2DFE802F0525252524A3813
:101C000040002A4BC21A984249D009DCB0F5805FE7
:101C10000DD0B0F5005F1CD0B0F1101F06D13EE032
:101C2000102A3CD0202A3AD0502A38D0012584F8F6
:101C30003D60002084F83C00284670BDCB68D1E9A7
:101C40000121206801F0FBFC2068816841F07701E8
:101C500009E0CB68D1E90121206801F0F0FC20689F
:101C6000816841F480418160E1E7CA684968206881
:101C700001F090FE5021206806E0CA68496820689B
:101C800001F099FE6021206801F0E4FCCFE7CA680A
:101C90004968206801F07EFE40212068F4E7226850
:101CA00001461046F0E7000088FFCEFF200010003C
:101CB000704770B50446006801694FF00005C943DC
:101CC000890715D4C168C943890711D4E91E016188
:101CD00001202077206880698007204602D0FFF726
:101CE000E7FF04E000F042F9204600F0B3FA257760
:101CF00020680169C943490717D4C168C943490726
:101D000013D46FF0040101610220207720688069FC
:101D100010F4407F204602D0FFF7CAFF04E000F035
:101D200025F9204600F096FA257720680169C94315
:101D3000090716D4C168C943090712D46FF0080116
:101D40000161042020772068C0698007204602D006
:101D5000FFF7AEFF04E000F009F9204600F07AFA40
:101D6000257720680169C943C90617D4C168C943EA
:101D7000C90613D46FF01001016108202077206894
:101D8000C06910F4407F204602D0FFF791FF04E0C5
:101D900000F0ECF8204600F05DFA25772068016934
:101DA000C943C90708D1C168C943C90704D1891EFD
:101DB0000161204600F050FA20680169C943090614
:101DC00009D4C168C943090605D46FF080010161D7
:101DD0002046FFF70EFE20680169C943C90509D4F2
:101DE000C168C943090605D46FF4807101612046BA
:101DF000FFF7FEFD20680169C943490609D4C1689F
:101E0000C943490605D46FF040010161204600F046
:101E100081FA20680169C943890609D4C168C943A8
:101E2000890605D46FF0200101612046FFF7E2FD2D
:101E300020680169C943C90209D4C168C943C902FC
:101E400005D46FF4801101612046FFF7D5FD2068AD
:101E50000169C943890209D4C168C943890205D40B
:101E60006FF4001101612046FFF7C5FD206801698C
:101E7000C943490209D4C168C943490205D46FF472
:101E8000800101612046FFF7B8FD20680169C94360
:101E900009020BD4C168C943090207D46FF40001D9
:101EA00001612046BDE87040FFF7F6BD70BD00003F
:101EB00010B586B0044614216846FEF7E3F92068A1
:101EC000B0F1804F16D10C48C16C41F00101C164E2
:101ED000C06C694600F001000590032000900220CC
:101EE0000190002002900390012004904FF0904058
:101EF000FEF7B0FE06B010BD0010024070B50446FB
:101F000090F83C00002501280BD0012084F83C000B
:101F10000C2A1ED007DC82B1042A12D0082A06D16E
:101F200013E0022070BD102A17D0142A19D0012501
:101F3000002084F83C00284670BD206801F094FB26
:101F4000F6E7206801F0DEFBF2E7206801F022FCF2
:101F5000EEE7206801F066FCEAE7206801F0AAFCE1
:101F6000E6E7206801F0DEFCE2E7000070B50A4D0C
:101F70000446A84205D1207F012802D1074800F07D
:101F8000F3FEAC4207D1207F022804D1BDE87040A7
:101F9000034800F0E9BE70BD3C0000205002002064
:101FA000AC02002010B5040003D094F83D0010B13D
:101FB00007E0012010BD002084F83C00204600F01E
:101FC00023F8022084F83D00211D206801F0D2FA98
:101FD000012084F8480084F83E0084F83F0084F82B
:101FE000400084F8410084F8420084F8430084F8FB
:101FF000440084F8450084F8460084F8470084F8DB
:102000003D00002010BD000008B50068B0F1804F11
:1020100012D10A48816D41F001018165806D002275
:1020200000F00100009011461C20FEF7A3FFBDE860
:1020300008401C20FEF790BF08BD000000100240C1
:1020400070B500250446022269B1042916D008297A
:1020500055D00C295ED0102963D094F84300012894
:1020600066D0012070BD94F83E000128F9D184F8B3
:102070003E202068C26842F0020209E094F83F0066
:102080000128EED184F83F202068C26842F00402A3
:10209000C2600122206801F0C5FA2B4920682B4A52
:1020A0002B4B884209D0904207D0984205D0294E48
:1020B000B04202D0284EB04203D1466C46F40046EE
:1020C0004664206888420CD0B0F1804F09D0234983
:1020D000884206D02249884203D0904201D09842DB
:1020E00007D181681F4A1140062906D0B1F5803F0B
:1020F00003D0016841F001010160284670BD94F8E9
:1021000040000128ADD184F840202068C26842F028
:102110000802BDE794F841000128A2D184F84120CB
:1021200008E094F8420001289BD184F8422003E0A3
:1021300084F843200C2901D00125DEE72068C2681D
:1021400042F01002A4E70000002C014000340140DE
:1021500000400140004401400048014000040040AC
:10216000000800400700010070B50D0004464FF064
:10217000000607D0042D0AD0082D0DD00C2D10D04C
:1021800001264CE02068C16821F002010DE02068C2
:10219000C16821F0040108E02068C16821F008014D
:1021A00003E02068C16821F01001C16000222946C7
:1021B000206801F037FA224B41F2111120688A00A1
:1021C00098420BD01F4B984208D01F4B984205D025
:1021D0001E4B984202D01E4B984209D1036A0B4213
:1021E00006D1036A134203D1436C23F400434364D2
:1021F0002068036A0B4206D1016A114203D10168CB
:1022000021F00101016001205DB1042D0CD0082DE9
:102210000DD00C2D0ED0102D0FD084F84300304679
:1022200070BD84F83E00FAE784F83F00F7E784F8D1
:102230004000F4E784F84100F1E784F84200EEE75B
:10224000002C0140003401400040014000440140A6
:10225000004801407047000010B525492DED028B64
:102260000068884241D12348006801283DD1224CB2
:102270009FED228ABAEE041A2169A068F0EE481A8E
:10228000401A00EE100AF2EE040A1D48B8EEC00A29
:1022900002F01AFD6169E068F0EE481A401A00EE9B
:1022A000100ABAEE0E1AF2EE0E0AB8EEC00A15487F
:1022B00002F00AFD14484178C90716D1104990ED83
:1022C000141A91ED0A0A816C494200EE901ABDEC95
:1022D000028BF8EEE00ABDE8104000EE810A9FEDA7
:1022E0000B1ADFED0B0A00F0A9BEBDEC028B10BD8E
:1022F0000008004010000020A003002000803B45A3
:102300007003002040030020AC0200200000FA43CC
:1023100000004843704790F88010012918D001212F
:1023200080F880102421C0F8841050F8641B0A68DB
:102330000B6823F001030B6022F0005100220260C1
:1023400050F8643C19602021016202771046704702
:10235000022070477047704770B5044690F88000BF
:1023600001281DD0012084F880002420C4F88400B6
:1023700020680568026822F0010202602068826815
:1023800022F060620A438260204601F027FB206849
:1023900005602020C4F88400002084F8800070BD0F
:1023A000022070BD70B5044690F8800001281DD051
:1023B000012084F880002420C4F884002068056887
:1023C000026822F0010202602068826822F0604206
:1023D0000A438260204601F001FB2068056020204E
:1023E000C4F88400002084F8800070BD022070BD15
:1023F00070477047704700002DE9F04103680446BC
:10240000D86919689A6840F60F0528424FF0000510
:1024100009D186067ED501F0200602F080573E43A2
:1024200078D0216F27E1A94EA94F16400F403743BE
:1024300070D0C70709D0CF0507D501271F62D4F890
:102440008C3043F00103C4F88C3083070AD5D307DE
:1024500008D0276802233B62D4F88C3043F0040391
:10246000C4F88C3043070AD5D30708D02768042363
:102470003B62D4F88C3043F00203C4F88C3003077D
:102480000CD501F02003334308D0266808233362BB
:10249000D4F88C3043F00803C4F88C3003050BD516
:1024A0004B0109D526684FF400633362D4F88C30B1
:1024B00043F02003C4F88C30D4F88C30002B3AD091
:1024C000800609D501F0200002F08051084303D0B6
:1024D000216F09B120468847D4F88C0021688968AB
:1024E000490602D410F0280F27D0204601F036FB11
:1024F0002068806840061BD52068083050E8001F1F
:1025000021F0400140E80012002AF5D1E06F78B1D7
:10251000704900E017E08163E06FFEF74DFB002893
:1025200009D0E06F816B00E02046BDE8F04108472C
:102530002046FFF75FFFBDE8F0812046FFF75AFF16
:10254000C4F88C50F7E7E76E2026012F7ED1C7062E
:102550007CD5CF067AD510201862206880684006A6
:1025600042D5E16F086840680004000CE3D0B4F87D
:102570005C208242DFD9A4F85E000868006880060B
:102580002BD4206850E8001F21F4807140E800122D
:10259000002AF6D12068083050E8001F21F0010120
:1025A00040E80012002AF5D12068083050E8001FEA
:1025B00021F0400140E80012002AF5D1C4F88860FB
:1025C000E566216851E8000F20F0100041E80002A4
:1025D000002AF6D1E06FFEF7BAFAB4F85C00B4F85E
:1025E0005E10401A81B22CE0B4F85C00B4F85E10C2
:1025F000401A81B2B4F85E0000289CD000299AD01D
:10260000226852E8000F20F4907042E80003002B8B
:10261000F6D12E4BDB432068083050E8002F1A40DB
:1026200040E80027002FF6D1C4F88860E5662567EA
:10263000226852E8000F20F0100042E80003002B4F
:10264000F6D12046FFF786FE75E7FFE7C70209D5FA
:10265000570207D54FF4801018622046BDE8F041BC
:10266000FFF7C7BE03060AD501F0800302F400029B
:10267000134304D0616F00297FF456AF5BE7420635
:1026800011D54A060FD52046016851E8002F22F0E7
:10269000400241E80023002BF6D1C0F88460456772
:1026A00000F074F947E7020206D54A0004D5204637
:1026B000BDE8F041FFF79CBEC001C5D50029C3DAD3
:1026C0002046BDE8F041FFF746BE000001000010C3
:1026D00020010004493B000810B5040003D0D4F8E1
:1026E000840010B107E0012010BD002084F88000B4
:1026F000204600F027F82420C4F8840020680168F0
:1027000021F001010160204601F06AFC0128EBD0B4
:10271000A06A10B1204601F083F92068416821F4D5
:10272000904141602068816821F02A018160206821
:10273000016841F0010101602046BDE8104001F050
:10274000D3B90000F0B597B00446142111A8FDF7E5
:1027500099FD44216846FDF795FD31492068314CCB
:10276000072700250226884229D10120CDE900054E
:102770006846FEF797FC08B1FEF7E7F9206E40F4D3
:1027800080402066206E00F480401690E06C40F09F
:102790000200E064E06CCDE9126500F002001690E2
:1027A000C020CDE91457119011A91F48FEF752FA25
:1027B000002211462520FEF7DDFB25202BE01B49DA
:1027C00088422AD1684600960295FEF76BFC08B154
:1027D000FEF7BBF9A06D40F40030A065A06D00F4D9
:1027E00000301690E06C40F00100E064E06CCDE950
:1027F000126500F0010016900C20CDE914571190DD
:1028000011A94FF09040FEF725FA0022114626202C
:10281000FEF7B0FB2620FEF79FFB17B0F0BD0000CF
:10282000003801400010024000040048004400400D
:1028300030B4D0F88830202B20D1E1B1DAB190F853
:102840008030012B1AD0012380F880300023C3662A
:102850000B4C0368A3420BD05B681B0208D50468CD
:1028600054E8003F43F0806344E80035002DF6D182
:1028700030BC01F0EFBC012030BC70470220FBE708
:102880000080004010B500680B49884206D10B4813
:1028900001F0DCFD01220949094808E009498842A4
:1028A00009D1094800F074F8074908480122BDE839
:1028B0001040FFF7BDBF10BD0038014008030020E5
:1028C000D4000020004400402403002064010020C4
:1028D0002DE9F8430446D0F884001F4616460D46FD
:1028E000202851D1DDB1D6B194F8800001284BD019
:1028F000012084F880004FF00008C4F88C8021206B
:10290000C4F884001834FEF7CFFAA6878146E6871C
:1029100054F8100C183CB0F5805F03D004E001209F
:10292000BDE8F883206920B12E46002584F8808018
:1029300010E00026FAE78021204601F017FDB8B923
:10294000C6B116F8010B21688862B4F85600401E23
:10295000A4F85600B4F856004B464FF0000200971A
:102960000028E8D14FF04001204601F0FFFC30B1D3
:102970000320D5E735F8020BC0F30800E3E7202079
:10298000C4F884000020CBE70220C9E770470000AC
:102990002DE9F043827E0023394D0E24812A69D02F
:1029A000802A61D0EE2A56D0EE26411C01274FF036
:1029B0000209032A0BD0042A1FD00278702A30D0D3
:1029C000732A30D06D2A31D0632A31D013E0C27E11
:1029D000022A07D290F800C002F1010880F81B809B
:1029E00002F801C0C17E02292AD141786D2902D1A5
:1029F0008021817638E086762DE0C27E022A07D2D9
:102A000090F800C002F1010880F81B8002F801C0B4
:102A1000C17E022914D141786329ECD181218176CC
:102A200028E087761BE080F81A901AE0032600E081
:102A300004268676C67E06F1010C80F81BC072540F
:102A4000817E01290BD002290BD080290CD081294D
:102A500010D0EE2901D18476C376BDE8F0832F60D3
:102A6000F9E7C5F80090F6E78476C37680783038C9
:102A70006860F2E78476C37680783038A860ECE747
:102A8000F4010020FEE7000030B50024039D04702F
:102A9000DFED100AC0ED160A42828160C480848096
:102AA000447004624462C0ED130A846480ED140A29
:102AB0008462C4620582C360C0ED150A44808461EB
:102AC0005FF0000100EB81021463491C0629F9DB69
:102AD000446130BD000000002DE9F04786B01421AC
:102AE0006846FDF7CFFB2C48C16C41F00401C1647E
:102AF000C16C01F004010591C16C41F02001C16479
:102B0000C16C01F020010591C16C41F00101C1646B
:102B1000C16C01F001010591C16C41F00201C16479
:102B2000C06CDFF8788000F002004FF4005405908C
:102B3000002221464046FEF7B1F94FF4F0664FF00F
:102B40009049002231464846FEF7A8F9DFF850A028
:102B5000A700002239465046FEF7A0F90125CDE92D
:102B6000004500240294694640460394FEF772F83B
:102B70000096CDE90154694648460394FEF76AF889
:102B80000097CDE90154694650460394FEF762F878
:102B900006B0BDE8F08700000010024000080048C1
:102BA0000004004810B58AB00024079408941C2142
:102BB00068460994FDF766FB19484FF080410160B3
:102BC000A921C0E901144FF6FF71C0E90314846123
:102BD000FFF7E8F908B1FDF7B8FF079407A9104817
:102BE0000994FEF70BFF08B1FDF7AFFF3020CDE9E8
:102BF000000402940022694609480494FFF77EF914
:102C000008B1FDF7A2FF042269460548FFF776F9EF
:102C100008B1FDF79AFF0248FFF74AF90AB010BD64
:102C20003C00002010B588B000241848009401949E
:102C3000029403940494059413490694016040F2AD
:102C4000A361C0E9011440F2E731C0E903148461D3
:102C5000FEF723FF08B1FDF778FF4FF48050009096
:102C600069460A48FEF7A4FF08B1FDF76EFF049419
:102C700004A906480694FEF7C1FE002801D0FDF71E
:102C800064FF08B010BD000000080040880000206C
:102C9000184810B5164901604FF4E1314160002138
:102CA00081600C22C160C0E904128161C1610162CE
:102CB00041628162FFF710FD08B1FDF746FF002178
:102CC0000C48FFF76FFB08B1FDF73FFF00210948F3
:102CD000FFF742FB08B1FDF738FF0648FFF71BFB83
:102CE000002803D0BDE81040FDF72FBF10BD000045
:102CF00000380140D4000020184810B51649016082
:102D00004FF4E1314160002181600C22C160C0E9D3
:102D100004128161C161016241628162FFF7DCFCE2
:102D200008B1FDF712FF00210C48FFF73BFB08B18B
:102D3000FDF70BFF00210948FFF70EFB08B1FDF777
:102D400004FF0648FFF7E7FA002803D0BDE810406B
:102D5000FDF7FBBE10BD00000044004064010020F0
:102D6000FEE7FEE77047704770B50446018AC06809
:102D70000068A9B3042936D0082936D00C2936D0EA
:102D8000102936D0C26C95B22278002A70D0204625
:102D900000F0D6F894ED150ADFED680A70EEC00A6F
:102DA000FCEEE00A10EE900A60806088A842208A5B
:102DB0004DD900B3042829D0082832D00C283BD0A4
:102DC00000EE905A1028F8EE600A30EE200ABCEEB1
:102DD000C00A10EE100A47D0E1680968C8648FE0A5
:102DE000FFE7426BCFE7826BCDE7C26BCBE7026CAC
:102DF000C9E7826CC7E700EE905AF8EE600A30EE41
:102E0000200ABCEEC00A10EE100A35E000EE905A1F
:102E1000F8EE600A30EE200ABCEEC00A10EE100A8E
:102E200031E000EE905AF8EE600A30EE200ABCEE77
:102E3000C00A10EE100A2DE000EE905AF8EE600A7B
:102E400030EE200ABCEEC00A10EE100A29E080B174
:102E5000042815D008281AD00C281FD01028206A62
:102E60006188A0EB0100B7D1E1680968886447E098
:102E70001BE0206A6188401AE168096848633FE006
:102E8000206A6188401AE1680968886338E0206A2E
:102E90006188401AE1680968C86331E0206A618886
:102EA000401AE168096808642AE06288AA421AD9CF
:102EB00059B104290CD008290DD00C290ED01029A5
:102EC00005F10F050DD0C5641AE00F35456317E015
:102ED0000F35856314E00F35C56311E00F350564C8
:102EE0000EE085640CE081B1042913D0082916D0C6
:102EF0000C2919D010296188C1F10F0119D0C164C2
:102F00002078C0B10020207070BD6188C1F10F0130
:102F10004163F5E76188C1F10F018163F0E76188E2
:102F2000C1F10F01C163EBE76188C1F10F010164D9
:102F3000E6E78164E4E70120E5E7000000FF7F4762
:102F400010B50446407800F00600022809D0042895
:102F500035D0062860D160780006A06C4BD5401CA7
:102F60004AE0A06A401CA06260780006A06C01D50F
:102F7000401C00E0401EA064A06AE16A88424BD376
:102F8000A06AE16A884247D36078000760780AD473
:102F900020F006006070607840F004006070606BA4
:102FA000E062002037E0000736D5607820F00600A8
:102FB0006070607840F006006070606B2BE0A06A83
:102FC000401CA06260780006A06C01D5401C00E0A7
:102FD000401EA064A06AE16A88421DD360780007A1
:102FE0001AD4607820F006006070607840F0060027
:102FF0006070A06B0FE0401EA064A06A012808D892
:103000006078000702D56078000702D5204600F0FE
:1030100008F8A06A401EA06210BD018AC068FFF7D0
:10302000A3B810B50446018AC068FFF79DF80020D8
:10303000607020626062A06210BD00002DE9F04166
:1030400004462DED048BB0EE408A01F017FED4ED5E
:10305000141AB4EEE10AF1EE10FA7CDD60784FF05C
:103060000107C007F0EE008A9FEDFD9B40F2B635E8
:103070004FF47A7633D094ED160AB4EE600AF1EE8E
:1030800010FA2BD194ED150AB4EE410AF1EE10FAC4
:10309000F7D12046FFF7C1FF6078000604D5B5EEF2
:1030A000C08AF1EE10FA07DA607800067ED4B5EE39
:1030B000C08AF1EE10FA79D26078400603D56078C4
:1030C00020F040006070607800F0060002286ED0AA
:1030D00004286DD006286CD00028FCD0EEE1B5EEB7
:1030E000C08A6078F1EE10FA20F08000607060789D
:1030F00001DB40F080006070D4ED161A9FEDDA0A13
:10310000F4EE601AF1EE10FA35D0C4ED160A84ED33
:10311000151AF0EE410A2046FDF7F5FC2063206BFE
:1031200000B92763206B606194ED140A94ED161AC0
:1031300060EE280A80EE810A10EE100AFDF7FBF916
:1031400041EC100B01F0E4FA53EC192B51EC100B8D
:10315000FDF766F900E0BCE1FDF7D4F92062206AD2
:10316000A84201D8256203E0206AB04200D326625B
:10317000206AA06115E0D4ED150AF4EE410AF1EEE3
:1031800010FA3ED084ED151AF0EE410A2046FDF704
:10319000BAFC2063206B00B92763206B6061A069D3
:1031A0002062D4ED140ABDEEC80A03E0FDE059E048
:1031B0008DE0A7E0B8EEC00A80EE201ABDEEC10A8D
:1031C00010EE100A01F062FD6063206B616BB0EBE2
:1031D000510F606B18D2216B494200EB41006063D4
:1031E000206BA063607820F006006070607840F08B
:1031F00002006070607820F008006070206BE06270
:103200001DE060692063CAE7616B00F0010000EB1C
:1032100051002063606B40086063206BE06260785F
:1032200020F008006070607840F0080060706078FE
:1032300020F006006070607840F0020060706078F6
:1032400020F001006070607840F0010060706078EC
:10325000618A0006A06801D5012200E00022FDF786
:103260001DFE2BE1B0EE480A01F008FDD4ED140A72
:10327000616980EE201ABCEEC10A10EE102AA06A25
:103280001044B0EB410F0CD3627822F00802627058
:103290006278627021634A4200EB42006063A1637E
:1032A00012E08A4201D8A26223E0617821F008018D
:1032B0006170617841F00801617000F0010101EB7B
:1032C0005001216340086EE0206BE062F6E0B0EE52
:1032D000480A01F0D3FCD4ED140A616980EE201A8B
:1032E000BCEEC10A10EE100A884201D3401AECE786
:1032F000A062607820F006006070607840F0060000
:103300006070DBE0B0EE480A01F0B8FCD4ED140ABE
:10331000A16A80EE201ABCEEC10A10EE100A8142AA
:1033200005D86269A16AA36A0144834201D3A062FD
:10333000C4E06078B1EB420F20F008006070607864
:1033400020D36070607820F006006070607840F0F4
:10335000020060702263504201EB40006063A26390
:10336000206BE062E06AA16A884278D1607820F040
:1033700006006070607840F0040060700020A06279
:10338000606BA2E740F008006070607820F00600F3
:103390006070607840F00200607001F0010000EBA6
:1033A00051002063480860638EE72046FFF735FE32
:1033B000607840F040006070607820F00600607037
:1033C000607840F006006070B0EE480A01F056FCEC
:1033D000D4ED140A6278002080EE201ABCEEC10AF7
:1033E00010EE101AC2F34102022A0AD06278C2F328
:1033F0004102012A09D06278C2F34102032A04D0B3
:1034000004E0206B206BA06200E0A06A08446169C0
:1034100021636063206B616BB0EB510F606B0DD269
:10342000216B494200EB41006063206BA063607830
:1034300020F008006070206BE0621AE0616B00F021
:10344000010000EB51002063606B40086063206B5B
:10345000E062607820F008006070607806E02DE09F
:103460000000000040A124410000000040F00800DE
:10347000607094ED160A94ED151A60EE280A80EE3D
:10348000810A10EE100AFDF756F841EC100B01F01E
:103490003FF953EC192B51EC100BFCF7C1FFFDF772
:1034A00031F8E061E069A84201D8E56103E0E06934
:1034B000B04200D3E661A06A00B9A7622046FFF7D8
:1034C00053FC218AE068BDEC048BBDE8F041FEF7B7
:1034D000B7BDBDEC048B2046BDE8F041FFF7A1BDB0
:1034E000FDF7E8BC00B593B038216846FCF7CAFE8A
:1034F00014210EA8FCF7C6FE0020FDF76DFD02208A
:10350000C1010391402104910421CDE908010090FB
:103510005521CDE90A1007900C900D906846FEF7F2
:103520004DF808B172B6FEE70F200E9003200F9001
:10353000002010901190129004210EA8FDF7F6FEC5
:10354000002801D072B6FEE713B000BD0248016842
:1035500041F470010160704788ED00E00148FEF71A
:10356000A8BB00003C0000200148FEF7A2BB000001
:10357000880000202DE9F0430268234B234D244EA0
:10358000244C4FF08049984207D0484505D0A842C6
:1035900003D0B04201D0A04203D122F070074A68A4
:1035A0003A431D4FDFF874C0DFF8748098420DD0A5
:1035B00048450BD0A84209D0B04207D0A04205D060
:1035C000B84203D0604501D0404503D122F4407594
:1035D000CA682A434D6922F080022A4302608A6841
:1035E000C2620A688262984207D0A04205D0B842FF
:1035F00003D0604501D0404501D109690163012133
:103600004161BDE8F0830000002C0140000400404F
:1036100000080040003401400040014000440140E7
:103620000048014010B501F01F030121046A9940D0
:103630008C430462016A9A401143016210BD10B5C7
:10364000846842EA032224F47F440A4322438260CE
:1036500010BD00008268034B1A400A4342F0070184
:10366000816070478FFFCFFF2DE9F043026A22F09F
:1036700001020262056A436882691C4C25F002055A
:1036800022400C6822F0030214438A68194E2A4330
:10369000174D194FDFF864C0DFF86490A84207D0D7
:1036A000B04205D0B84203D0604501D0484506D1AC
:1036B00022F00808CA6842EA080222F00402A8427E
:1036C00007D0B04205D0B84203D0604501D048458C
:1036D00005D14D6923F440731D438B692B4343602F
:1036E0008461496841630262BDE8F0838FFFFEFF99
:1036F000002C0140003401400040014000440140E2
:1037000000480140F0B5026A22F010020262056A28
:1037100042688369194C1B4E23400C6823F44073A4
:1037200043EA042425F020038D6843EA0513144D71
:10373000A84201D0B04206D1CF6823F0800343EA0B
:10374000071323F04003A8420AD0B04208D00E4D20
:10375000A84205D00D4DA84202D00D4DA84207D178
:103760004D6922F4406242EA85028D6942EA85028F
:1037700042608461496881630362F0BDFF8FFFFE90
:10378000002C014000340140004001400044014051
:1037900000480140F0B5026A22F480720262056AB4
:1037A0004368C269194C1B4E22400C6822F0030288
:1037B000144325F400728D6842EA0522144DA84294
:1037C00001D0B04206D1CF6822F4006242EA07225B
:1037D00022F48062A8420AD0B04208D00E4DA8421E
:1037E00005D00E4DA84202D00D4DA84207D14D691B
:1037F00023F4405343EA05138D6943EA05134360FC
:10380000C4614968C1630262F0BD00008FFFFEFF22
:10381000002C0140003401400040014000440140C0
:1038200000480140F0B5026A22F480520262056A43
:103830004268C369194C1B4E23400C6823F4407343
:1038400043EA042425F400538D6843EA0533144DFC
:10385000A84201D0B04206D1CF6823F4004343EA26
:10386000073323F48043A8420AD0B04208D00E4D5B
:10387000A84205D00D4DA84202D00D4DA84207D157
:103880004D6922F4404242EA85128D6942EA85126E
:103890004260C461496801640362F0BDFF8FFFFEAE
:1038A000002C014000340140004001400044014030
:1038B0000048014030B5026A22F480320262046A94
:1038C0004268036D114D2B400D681D4324F40033F5
:1038D0000C8943EA04430E4CA0420BD00D4CA0428D
:1038E00008D00D4CA04205D00C4CA04202D00C4C8C
:1038F000A04204D14C6922F4803242EA04224260A0
:10390000056549688164036230BD00008FFFFEFFDA
:10391000002C0140003401400040014000440140BF
:103920000048014030B5026A22F480120262046A43
:103930004268036D114D24F400142B400D6843EAD6
:1039400005230D8944EA05540D4DA8420BD00D4DB9
:10395000A84208D00C4DA84205D00C4DA84202D078
:103960000B4DA84204D14D6922F4802242EA8522FF
:10397000426003654968C164046230BDFF8FFFFE89
:10398000002C01400034014000400140004401404F
:103990000048014010B5036A046A24F0010404627F
:1039A000846924F0F00444EA021423F00A020A4372
:1039B0008461026210BD10B5036A23F01003036234
:1039C0008369046A23F4704343EA023224F0A003BB
:1039D00043EA01118261016210BD000030B5416E01
:1039E000B9B1026891689268C1F342610B4B520F02
:1039F0009C5CE50003F10804A25CB5FBF2F2A0F8C0
:103A00006A205A5C615CD200B2FBF1F1A0F8681048
:103A100030BD0121A0F86A10F8E70000884E0008C8
:103A200090F82810C90706D001684A68C36A22F4D2
:103A300000321A434A6090F82810890706D50168B9
:103A40004A68036B22F480321A434A6090F82810C7
:103A5000490706D501684A68436B22F480221A435D
:103A60004A6090F82810090706D501684A68836BF8
:103A700022F400421A434A6090F82810C90606D57D
:103A800001688A68C36B22F480521A438A6090F8F6
:103A90002810890606D501688A68036C22F4005252
:103AA0001A438A6090F82810490611D501684A68BF
:103AB000436C22F480121A434A60416CB1F5801FB6
:103AC00006D101684A68836C22F4C0021A434A6036
:103AD00090F82810090606D501684A68C06C22F4DF
:103AE000002202434A607047F8B500260446C0F839
:103AF0008C60FDF7D9F90546206800686FF07E47B5
:103B0000000708D52B4600224FF4001120460097ED
:103B100000F02CFC60B92068006840070AD52B46ED
:103B200000224FF480012046009700F01FFC08B1EE
:103B30000320F8BD2020C4F88400C4F8880044F8AD
:103B40006C6F00202675F8BD10B5806A0021A0F8C2
:103B50005E10A0F85610FEF74DFC10BD10B50268BF
:103B600052E8001F21F4907142E80013002BF6D1B7
:103B70000E4B0268083252E8001F194042E8001458
:103B8000002CF6D1C16E012908D1016851E8002F3F
:103B900022F0100241E80023002BF6D12021C0F8CA
:103BA00088100021C166016710BD0000FEFFFFEF15
:103BB00010B5B0F86020D0F888300168222B04D00E
:103BC000886940F00800886110BD496A836D114022
:103BD0001980816D891C8165B0F85E10491EA0F8BE
:103BE0005E10B0F85E100029EED1026852E8001FA6
:103BF00021F4907142E80013002BF6D101680831DE
:103C000051E8002F22F0010241E80023002BF5D1FA
:103C10002021C0F8881000210167C26E012A02D05D
:103C2000FEF730FE10BDC166026852E8001F21F0A9
:103C3000100142E80013002BF6D10168CA69D24393
:103C4000D20601D410220A62B0F85C10FEF782FBA3
:103C500010BD00002DE9F0470446B0F86060006830
:103C6000C569D0F800A0D0F80880D4F888102229BF
:103C700005D0816941F008018161BDE8F087B4F8A1
:103C800068704FF0000963E02068406AA16D304021
:103C90000880A06D801CA065B4F85E00401EA4F8EA
:103CA0005E002068C569690730D0E9070AD05FEA7D
:103CB000CA5107D501210162D4F88C0040F00100FF
:103CC000C4F88C00A8070BD55FEAC87008D021683B
:103CD00002200862D4F88C0040F00400C4F88C0084
:103CE00068070BD55FEAC87008D021680420086215
:103CF000D4F88C0040F00200C4F88C00D4F88C009A
:103D000020B12046FEF776FBC4F88C90B4F85E0034
:103D1000F0B9216851E8000F20F4807041E80002FA
:103D2000002AF6D1264A2068083050E8001F1140CA
:103D300040E80013002BF6D12020C4F88800C4F816
:103D40007090E16E4846012923D02046FEF79AFD87
:103D50000FB1A80698D4B4F85E0000288DD0B4F84E
:103D60006810814289D92068083050E8001F21F08E
:103D7000805140E80012002AF5D1124820672068DF
:103D800050E8001F41F0200140E80012002AF6D15F
:103D900073E7E066216851E8000F20F0100041E869
:103DA0000002002AF6D12068C169C943C90601D4BE
:103DB00010210162B4F85C102046FEF7CBFAC7E789
:103DC000FEFFFFEFB13B000810B5B0F86020D0F85F
:103DD00088300168222B04D0886940F0080088618F
:103DE00010BD496A1140826D1170816D491C816559
:103DF000B0F85E10491EA0F85E10B0F85E10002901
:103E0000EED1026852E8001F21F4907142E80013DD
:103E1000002BF6D10168083151E8002F22F0010291
:103E200041E80023002BF5D12021C0F888100021A3
:103E30000167C26E012A02D0FEF724FD10BDC166E3
:103E4000026852E8001F21F0100142E80013002B25
:103E5000F6D10168CA69D243D20601D410220A629F
:103E6000B0F85C10FEF776FA10BD00002DE9F047BF
:103E70000446B0F860600068C569D0F800A0D0F8CA
:103E80000880D4F88810222905D0816941F0080102
:103E90008161BDE8F087B4F868704FF0000963E015
:103EA0002068406AA16D30400870A06D401CA0657C
:103EB000B4F85E00401EA4F85E002068C56969077A
:103EC00030D0E9070AD05FEACA5107D50121016263
:103ED000D4F88C0040F00100C4F88C00A8070BD582
:103EE0005FEAC87008D0216802200862D4F88C000C
:103EF00040F00400C4F88C0068070BD55FEAC87076
:103F000008D0216804200862D4F88C0040F0020038
:103F1000C4F88C00D4F88C0020B12046FEF76AFA71
:103F2000C4F88C90B4F85E00F0B9216851E8000F35
:103F300020F4807041E80002002AF6D1264A206869
:103F4000083050E8001F114040E80013002BF6D164
:103F50002020C4F88800C4F87090E16E484601291A
:103F600023D02046FEF78EFC0FB1A80698D4B4F8F3
:103F70005E0000288DD0B4F86810814289D920688D
:103F8000083050E8001F21F0805140E80012002A5C
:103F9000F5D112482067216851E8000F40F0200059
:103FA00041E80002002AF6D173E7E066216851E893
:103FB000000F20F0100041E80002002AF6D120682E
:103FC000C169C943C90601D410210162B4F85C106B
:103FD0002046FEF7BFF9C7E7FEFFFFEFC93D000827
:103FE0002DE9F0410446016880682269E3691043C5
:103FF000626900251A431043DFF82CC20A688B4B14
:104000001A4002430A6020684168E26821F4405186
:10401000114341602168A069614501D0226A1043C3
:104020008A68834B1A4002438A602068C16A626AC8
:1040300021F00F011143C1627E4923687E488B4203
:104040000DD1D0F8880010F0030006D0012855D01B
:10405000022842D003283FD152E001203DE07749B9
:104060008B420BD1D0F8880010F00C0035D004281A
:1040700033D0082840D00C282ED141E070498B4223
:104080000BD1D0F8880010F0300026D0102835D0A1
:10409000202831D030281FD132E06A498B420BD121
:1040A000D0F8880010F0C00017D0402826D0802813
:1040B00022D0C02810D123E063450DD1D0F888006C
:1040C00010F4406009D0B0F5806F17D0B0F5006FE4
:1040D00012D0B0F5406F13D010205B495B4F002623
:1040E0004FF4004263453BD160B1022813D004284D
:1040F0000BD0082872D10DE00220EEE70420ECE797
:104100000820EAE7FDF700FA01E0FDF721FA0100D7
:1041100001D17CE01146606A37F810206768B1FB76
:10412000F2F007EB4703834270D8B0EB073F6DD83E
:10413000002308461946FCF76DF8090241EA1061B0
:1041400002027808101871413A460023FCF762F821
:104150003F4AA0F54071914258D82168C86056E0A6
:10416000E3694FF6EF7893422CD109284ED2DFE86D
:1041700000F00508114D0D4D4D4D1000FDF7C4F92F
:1041800001E0FDF7D3F9010004D140E0FDF7E0F9CB
:10419000F9E71146606A37F81000B1FBF0F0410012
:1041A000606801EB5001B1FBF0F0A0F11001414556
:1041B0002CD84FF6F0710140C0F342000143206853
:1041C000C16024E0092821D2DFE800F005091220AF
:1041D0000E2020201100FDF797F902E016E0FDF710
:1041E000A5F9010004D112E0FDF7B2F9F9E7114693
:1041F000606A37F81000B1FBF0F1606801EB500124
:10420000B1FBF0F0A0F1100141450AD901250120D0
:10421000A4F86A0024F8680F2846A660E660BDE8A6
:10422000F08180B299E7000000800040F369FFCF81
:10423000FFF4FF110038014000100240004400402C
:1042400000480040004C00400024F400704E00087C
:10425000FFFC0F0070B58165A0F85C20A0F85E201F
:104260000021016783684FF48055FF24AB4204D1DD
:104270000369FBB940F2FF1322E07F26C3B1B3F11B
:10428000805F1AD0A0F86010C0F88C102223C0F80C
:1042900088300368083353E8004F44F0010443E8D2
:1042A0000046002EF5D1436EB3F1005F0ED032E030
:1042B000036943B9A0F86040E6E703691BB13F23F7
:1042C000A0F86030E0E7A0F86060DDE7B0F86830A3
:1042D000934220D88268AA4201D10269CAB11F4A1A
:1042E000026780F88010016941B1026852E8001F3E
:1042F00041F4807142E80013002BF6D101680831C7
:1043000051E8002F42F0805241E80023002BF5D104
:1043100021E0134AE4E78268AA4201D102697AB136
:10432000104A026780F88010016959B1026852E8AA
:10433000001F41F4907142E80013002BF6D10AE00F
:10434000094AEEE7026852E8001F41F0200142E806
:104350000013002BF6D1002070BD00006D3E000858
:10436000553C0008C93D0008B13B00082DE9F04765
:104370009A4617460E4604464FF000094FF02008B3
:10438000089D4AE0681C48D0FCF78EFDA0EB0A00AF
:10439000A8422AD84DB32068016849073DD5C069B5
:1043A000C043000539D421684FF4006008622068DA
:1043B00050E8001F21F4D07140E80012002AF6D125
:1043C0002068083050E8001F21F0010140E8001289
:1043D000002AF5D144F8848FC4F80480C4F808801A
:1043E00004F8049C0320BDE8F087216851E8000F21
:1043F00020F4D07041E80002002AF6D1206808308D
:1044000050E8001F21F0010140E80012002AF5D118
:1044100044F8848FC4F80480E2E72068C06936EA73
:10442000000004D00020B842ACD00020DBE701201F
:10443000F9E700000148FDF7DFBF0000D4000020CD
:104440000148FDF7D9BF000064010020F0B5817E6E
:104450003A4D00260E2787B00446802941D0EE2928
:1044600067D0EE22601C402907D0412919D021785D
:104470006A2928D0722928D011E0E17E072905D2C7
:10448000237801F1010C84F81BC00B54E07E07284F
:1044900021D160786A2802D18020A07621E0A2761E
:1044A00047E0E17E192905D2237801F1010C84F857
:1044B0001BC00B54E07E19280DD160787228EED114
:1044C0008120A0761BE0402200E04122A276E37E1C
:1044D0005A1CE2761954A07E802802D081280ED082
:1044E00024E0A776E6762B1D144A15A1601CFBF785
:1044F000D5FE1548296801616968416116E0A77613
:10450000E6760120A8640D482430011F0A1FCDE97A
:1045100004101038131F0392011F0091CDE901030D
:104520000B1F143A09A1601CFBF7B8FEA07EEE2811
:1045300001D1A776E67607B0F0BD000004020020A6
:104540006A25336425336400A00300207225336498
:10455000253364253364253364253364253364258A
:104560003364253364000000FEE74100080218BFF1
:1045700004200A0E18BF40F001004FF07F4232EADB
:10458000010108BF40F00200012808BF0520704764
:104590000907090E002804DB00F1E02080F8001470
:1045A000704700F00F0000F1E02080F8141D704704
:1045B00010B54FF00E412DED028BB0EE408A18EE93
:1045C000100A01EB4001B1F1145F5CD24FF0FE41E3
:1045D000B1EB400F24BF9FED400AF0EE400A12D22B
:1045E00010F0004F19BFDFED3D0A9FED3D0ADFEDF2
:1045F0003D0A9FED3D0AFFEE001A81EE881AB0EEEB
:10460000418A18EE100A4FF0FC41B1EB400F1BD26B
:1046100010F0004FDFED351A9FED352A1DBFBEEEBD
:10462000001A70EEE10A30EE420AB6EE001A04BF3C
:1046300070EEA10A30EE020A38EE412AF7EE001AB7
:1046400048EE011A82EE218ADFED2A1A9FED2A2A0E
:1046500028EE081A01EE212ADFED281A41EE021A8F
:104660009FED272A01EE212ADFED261A41EE021ADC
:1046700028EE011A01EE210A30EE080ABDEC028B89
:1046800030EE200A10BD4FF0E441B1EB400F0CD9E1
:1046900018EE100AFFF769FF042808BF00F096F82B
:1046A000B0EE480ABDEC028B10BD4FF07F41B1EB7C
:1046B000400F07D2B0EE480ABDEC028BBDE81040B7
:1046C00000F080B810F0004F14BF9FED0F0A9FED6F
:1046D0000F0ABDEC028B10BD000000000000C9BF36
:1046E00022AAFDB90000C93F22AAFD390060ED3EB3
:1046F000C30ACE372DAD65BD8FB8D53D0FB511BE00
:1047000061C84C3EA8AAAABEDB0FC9BFDB0FC93FD8
:1047100000B52DED048BB0EE409AF0EE609A83B0B8
:1047200051EC190BFBF7D9FF41EC180B18EE100AEE
:1047300018EE901A8DED008B002818BF0120084359
:1047400020F00040C0F17F6000F1E040C00F14D0C5
:1047500019EE101A19EE900A8DED009B002918BF72
:104760000121084320F00040C0F17F6000F1E040EB
:10477000C00F04BF012000F041F8B0EE480A03B0BA
:10478000F0EE680ABDEC048B00BD10B52DED028B78
:10479000B1EEC08A18EE100A20F00040C0F1FF40D0
:1047A000C00F0AD010EE100A20F00040C0F1FF4008
:1047B000C00F04BF012000F021F8B0EE480ABDECA4
:1047C000028B10BD30EE000A704700009FED020A18
:1047D00020EE000A704700000000001002E008C848
:1047E000121F08C1002AFAD170477047002001E06B
:1047F00001C1121F002AFBD1704700000149086067
:10480000704700003800002000EE100A9FED0E1ADD
:10481000DFED0E1AB8EEC00A70EE410A80EEA10A72
:1048200000EE901ADFED0A1AF8EEE00A30EEC11A37
:10483000C1EE210ABDEEC00A82ED000ABDEEE00A1B
:1048400083ED000A70470000008009436666E63E7B
:104850006666E6BE2DE9F04F05462DED028B81B070
:104860000020009042480C46B0EE408A0168A94200
:1048700000D00D464068A04200D00446571B00EE11
:10488000107A1E1BAB46B8EEC00AA246002FF0EE0F
:10489000C00A00EE106AB8EEC00AB0EEC00A30EEF0
:1048A000800AF0EE080AC0EE201ABDEEE10A10EE12
:1048B000109A03DD002E0BDB01200AE0002E01DD43
:1048C000022006E0002F01DA032002E0002E47DA82
:1048D0000420804644E027484078C00740D126485D
:1048E0004078C0073CD14046B8F1010F07D00228FC
:1048F0000ED0032814D0B8F1040F1BD114E0009897
:10490000002802DB0BF1030008E00AF1030010E0CD
:1049100000980028F9DA00BFABF10300834609E0F4
:1049200000980028F8DA02E000980028EADBAAF1F3
:104930000300824600EE10AAAAEB04007843F8EECA
:10494000C00AA5EB0B0100EE10BA01FB0600A9F1AD
:104950000109B0EE481AB8EEC00A009000F010FA53
:10496000B9F1000FB7DC01B0BDEC028BBDE8F08FF0
:10497000A003002050020020AC020020C0E9001279
:104980000021016181604161C1608161C161704745
:104990002DED028B82B0FCF795FAFEF7A3FDFEF732
:1049A0009BF8FEF7FFF8FEF73DF9FEF771F9FEF709
:1049B000A3F92A48FDF7C0F800212848FDF740FB7D
:1049C00004212648FDF73CFB012225492548FDF737
:1049D0002FFF012224492548FDF72AFF00204FF030
:1049E000904400909FED220A224B802221462248CB
:1049F000FEF74AF80420420300909FED200A1D4B69
:104A00001F492048FEF740F8002211461E48FFF7D4
:104A1000B5FF0122DFED1D8A9FED1D8A5102204660
:104A2000FCF73CFAB0EE481AF0EE480AB0EE680A1D
:104A3000184800F02FF9B0EE481AF0EE480AB0EE30
:104A4000680A154800F026F900F094F940F6B830ED
:104A5000FCF7EEF800F022F8FEE7000088000020E6
:104A600008030020D400002024030020640100205B
:104A70006666663D3C000020500200206666E63C0B
:104A800000040048AC020020A0030020CDCCCC3DA7
:104A90000000000040030020700300202DE9F047D3
:104AA0006D4C6E4E4FF000082DED028B9FED6C8A21
:104AB0006C4D4FF47A774FF47A69A86907284FD282
:104AC000DFE800F0044F687B8EA1C700A06C28B916
:104AD0000A23012264A16548FDF7FAFEA06C0128B3
:104AE0003ED15D4BD4E902012C331A1FFFF78CFE37
:104AF000594BD4E9040134331A46FFF785FE564B6F
:104B0000D4E906013C331A1FFFF77EFE524BD4E96D
:104B1000080144331A1FFFF777FE0020DFED540A27
:104B2000C4F8488004EB8001401C91ED0A1A082863
:104B3000B8EEC11A21EE201ABDEEC11A81ED0A1A93
:104B4000F0DBA8690A23401CA861012249A147485B
:104B5000FDF7BEFE012251024FF09040FCF79EF996
:104B600069E0D4E90A23D6E90001B0EE480AFFF76C
:104B700071FE0020012100E00221491CB942FCDB4A
:104B8000401C1428F8DB4846FCF752F8A869401C82
:104B9000A86150E0D4E90C23D6E90001B0EE480A40
:104BA000FFF758FE0020012100E00221491CB94214
:104BB000FCDB401C1428F8DBE5E7D4E90E23D6E93A
:104BC0000001B0EE480AFFF745FE0020012100E099
:104BD0000221491CB942FCDB401C1428F8DBD2E757
:104BE000D4E91023D6E90001B0EE480AFFF732FEFF
:104BF0000020012100E00221491CB942FCDB401CDD
:104C00001428F8DBBFE7D4E90A23D6E90001B0EEA7
:104C1000480AFFF71FFE0020012100E00221491C85
:104C2000B942FCDB401C1428F8DBA869401CA861D1
:104C30004846FBF7FDFFE86901287FF43EAF0E49C7
:104C40000220C1F80480C5E90680BDEC028BBDE8F6
:104C5000F0870120E861F2E704020020A0030020B1
:104C600000803B451400002061000000D4000020BB
:104C7000952B883F62000000F4010020B5EEC00AC9
:104C8000F1EE10FA01DAB1EE400A7047002800DABE
:104C90004042704780EC030A9FED0A0A80ED040A47
:104CA00080ED030A80ED050A80ED060A80ED070A13
:104CB00080ED0A0A80ED0B0A80ED080A80ED090AF2
:104CC000704700000000000080ED050AD0ED0B2ABF
:104CD00090ED082AF4EEE02AF1EE10FA04DCF4EE8E
:104CE000C12AF1EE10FA06D262EE802AF5EEC02A51
:104CF000F1EE10FA03D232EE002A80ED082AB4EE6B
:104D0000E12AF1EE10FA06DCF1EE611AB4EEE12AC6
:104D1000F1EE10FA01D2C0ED081AD0ED061A30EE0D
:104D2000612A80ED092AD0ED001AD0ED012A90ED1C
:104D3000083A61EE801A42EE831AD0ED022A42EE62
:104D4000821AC0ED0A1AF4EEE01A80ED060AF1EEBE
:104D500010FAC0ED0B1A01DDC0ED0A0A90ED0A0A47
:104D6000B4EEC10AF1EE10FA01D280ED0A1A90ED0C
:104D70000A0A7047014902200860704710000020AD
:104D800070B52DED088BF0EE408AB0EE41BAB0EE72
:104D9000609A9FED2F0A08EEA80AFFF7F6FCDFEDF8
:104DA0002D0AF0EE40AA88EEA00AFFF701FCDFED25
:104DB0002A9A9FED2AAA20EE290A80EE0A8A89EE15
:104DC0002A0AFFF7F5FB20EE290A2548254C274D36
:104DD000C0EE0A9A90ED120AD0ED140AD4ED141A1E
:104DE000B8EEC01AB0EE480A9FED1F8A01EE600AC5
:104DF00094ED121AB8EEC11A41EE619AB0EEC01AE3
:104E0000B4EEE01AF1EE10FA09DDB0EE4B1AF0EE56
:104E1000480AFEF713F9BDEEE80A85ED000AD4ED65
:104E2000140AB0EEE90AB4EEE00AF1EE10FA0CDD75
:104E3000B0EE4B1AF0EE480AB0EE690A0948FEF7E8
:104E4000FDF8BDEEC90A85ED010ABDEC088B70BD09
:104E50000024744900007A4400003443D00F4940D4
:104E6000AC020020500200200000FA43A003002002
:104E7000010002000400060008000A000C001000F7
:104E80002000400080000001010101030701000033
:104E900008040204080101010000000000000000F5
:104EA00001020304060708090000000001020304D0
:104EB000DDDDDDDDDCBBBBDDDDDDDDDDDDDDDDDD67
:104EC00098888888888888887777777777888888A7
:104ED000855555566666666666666666666888883F
:104EE0008333333222222222222222222228888D38
:104EF000104F0008000000203C000000DC470008C4
:104F00004C4F00083C00002084070000EC470008DC
:104F10001000000001000000000000000024F40068
:104F2000000000000002020000000000000000007D
:104F3000000000000200000002000000000000006D
:0C4F400002000000000000000000000063
:04000005080001D915
:00000001FF
